:100000000C946F0B0C94B60B0C94D10B0C94B60B98
:100010000C94B60B0C94B60B0C94B60B0C94B60B5C
:100020000C94B60B0C94B60B0C94B60B0C94B60B4C
:100030000C94B60B0C94B60B0C948F260C94B60B48
:100040000C94B60B0C94B60B0C94B60B0C94B60B2C
:100050000C94B60B0C94B60B0C94B60B0C94B60B1C
:100060000C94B60B0C94B60B0000000000000000CE
:100070000000000000000000000000000000000080
:100080000000000000000000000000000000000070
:100090000000000000000000000000000000000060
:1000A0000000000000000000000000000000000050
:1000B0000000000000000000000000000000000040
:1000C0000000000000000000000000000000000030
:1000D0000000000000000000000000000000000020
:1000E0000000000000000000000000000000000010
:1000F0000000000000000000000000000000000000
:1001000000000000000000000000000000000000EF
:1001100000000000000000000000000000000000DF
:1001200000000000000000000000000000000000CF
:1001300000000000000000000000000000000000BF
:1001400000000000000000000000000000000000AF
:10015000000000000000000000000000000000009F
:10016000000000000000000000000000000000008F
:10017000000000000000000000000000000000007F
:10018000000000000000000000000000000000006F
:10019000000000000000000000000000000000005F
:1001A000000000000000000000000000000000004F
:1001B000000000000000000000000000000000003F
:1001C000000000000000000000000000000000002F
:1001D000000000000000000000000000000000001F
:1001E000000000000000000000000000000000000F
:1001F00000000000000000000000000000000000FF
:1002000000000000000000000000000000000000EE
:1002100000000000000000000000000000000000DE
:1002200000000000000000000000000000000000CE
:1002300000000000000000000000000000000000BE
:1002400000000000000000000000000000000000AE
:10025000000000000000000000000000000000009E
:100260000000000000000000000000000000F01C82
:10027000030100000000071F3E0000000000387C62
:10028000FCFC7F3E00000000000000010F7FFEF03C
:10029000000000000000000000000000000000005E
:1002A000000000000000000000000000000000004E
:1002B000000000000000000000000000000000003E
:1002C000000000000000000000000000000000002E
:1002D000000000000000000000000000000000001E
:1002E00000000000000000000000000000003FE0EF
:1002F00000000000000000000000000000000000FE
:10030000000000002060C080000000000080FFFFAF
:100310000E000000000000000000000000000000CF
:1003200000000000000000000000000000000000CD
:1003300000000000000000000000000000000000BD
:1003400000000000000000000000000000000000AD
:10035000000000000000000000000000000000009D
:10036000000000000000000000000000000000018C
:10037000071C30408000000000000000000000006A
:1003800000001E3F3F3F9F8F406030180E07030064
:10039000000000000000000000000000000000005D
:1003A000000000000000000000000000000000004D
:1003B000000000000000000000000000000000003D
:1003C000000000000000000000000000000000002D
:1003D000000000000000000000000000000000001D
:1003E000000000000000000000000000000000000D
:1003F000000000000001020404080010002020009A
:10040000007E7A02010101000000000000000000EF
:1004100000000000000000000000000000000000DC
:1004200000000000000000000000000000000000CC
:1004300000000000000000000000000000000000BC
:1004400000000000000000000000000000000000AC
:10045000000000000000000000000000000000009C
:10046000000000000000000000000000000000008C
:10047000000000000000000000000000000000007C
:10048000000000000000000000000000000000006C
:10049000000000000000000000000000000000005C
:1004A00080004040E000000000000000000000006C
:1004B000000000000000000000000000000000003C
:1004C000000000000000000000000000000000002C
:1004D000000000000000000000000000000000001C
:1004E000000000000000000000000000000000000C
:1004F00000000000000000000000000000000000FC
:1005000000000000000000000000000000000000EB
:1005100000000000000000008040300804020101DB
:1005200000000000070604C4E4E4ECC8881810309A
:1005300060E0C0800000000000000000000000003B
:1005400000000000000000000000000000000000AB
:10055000000000000000000000000000000000009B
:10056000000000000000000000000000000000008B
:10057000000000000000000000000000000000007B
:10058000000000000000000000000000000000006B
:10059000000000000000F01E03000000000000004A
:1005A0000000000000000003070727331F000000C1
:1005B000000001031FFEF8C0000000000000000062
:1005C000000000000000000000000000000000002B
:1005D000000000000000000000000000000000001B
:1005E000000000000000000000000000000000000B
:1005F00000000000000000000000000000000000FB
:1006000000000000000000000000000000000000EA
:1006100000000000003FFF0000000000000000009C
:1006200000000000000000E0F0F0F0E0C00000007A
:100630000000000000FFFF7F00000000000000003D
:1006400000000000000000000000000000000000AA
:10065000000000000000000000000000000000009A
:10066000000000000000000000000000000000008A
:10067000000000000000000000000000000000007A
:10068000000000000000000000000000000000006A
:10069000000000000000000000000000000000005A
:1006A000000000000000000000000000000000004A
:1006B000000000000000000000000000000000003A
:1006C000E03C0E030100000000000000000E0F07D8
:1006D000000080C0C0C0C088F000000001031FFC03
:1006E000F0C000000000000000000000000000005A
:1006F00000000000000000000000000000000000FA
:1007000000000000000000000000000000000000E9
:1007100000000000000000000000000000000000D9
:1007200000000000000000000000000000000000C9
:10073000000000000000000000000000000000FFBA
:1007400001000000000000000000000000000000A8
:10075000000007070707070301000000000080FFF3
:10076000FF7F00000000000000000000000000000B
:100770000000000000000000000000000000000079
:100780000000000000000000000000000000000069
:100790000000000000000000000000000000000059
:1007A0000000000000000000000000000000000049
:1007B0000000000000000000000000000000000732
:1007C00038C00000000000000000000040F0F0F819
:1007D000F0E0FE3C00000000000080C0F07C3F0F15
:1007E0000300000000000000000000000000000006
:1007F00000000000000000000000000000000000F9
:1008000000000000000000000000000000000000E8
:1008100000000000000000000000000000000000D8
:1008200000000000000000000000000000000000C8
:1008300000000000000000000000000000000000B8
:10084000000003040800207C0C04040408090909C2
:10085000090908080C0C0C0607030301000000003E
:100860000000000000000000000000000000000088
:100870000000000000000000000000000000000078
:100880000000000000000000000000000000000068
:100890000000000000000000000000000000000058
:100AC00000000000000080603018080406020203E5
:100AD0000101F1F1010102020204CC8810306080B2
:100AE0000000000000000000000000000000000006
:100AF00000000000000000000000000000000000F6
:100B000000000000000000000000000000000000E5
:100B100000000000000000000000000000000000D5
:100B200000000000000000000000000000000000C5
:100B300000000000000000000000000000000000B5
:100B400000000000F80701000000000000000000A5
:100B50000000010100081C3E3E3E1E0F0000000187
:100B600007FC000000000000000000000000000082
:100B70000000000000000000000000000000000075
:100B80000000000000000000000000000000000065
:100B90000000000000000000000000000000000055
:100BA0000000000000000000000000000000000045
:100BB0000000000000000000000000000000000035
:100BC000000000001FF0800000000E203010080818
:100BD000000000000020F0F8F8F8F0E0800000804D
:100BE000E03F0000000000000000000000000000E6
:100BF00000000000000000000000000000000000F5
:100C000000000000000000000000000000000000E4
:100C100000000000000000000000000000000000D4
:100C200000000000000000000000000000000000C4
:100C300000000000000000000000000000000000B4
:100C400000000000000003060C183020604040C087
:100C500080809F9F80C0404040203613080C0601D2
:100C60000000000000000000000000000000000084
:100C70000000000000000000000000000000000074
:100C80000000000000000000000000000000000064
:100C90000000000000000000000000000000000054
:100CA0000000000000000000000000000000C06024
:100CB000381C0402030100000000000000000000D6
:100CC0000000000000C0E0F070010302061C30E0EC
:100CD0008000000000000000000000000000000094
:100CE0000000000000000000000000000000000004
:100CF00000000000000000000000000000000000F4
:100D000000000000000000000000000000000000E3
:100D100000000000000000000000000000000000D3
:100D20000000000000000000000000C0FC0F0100F7
:100D3000000080E0B88C808080000000000000008F
:100D400000000000C3E3E1E0E0E0C000C0F000000C
:100D500007FE00000000000000000000000000008E
:100D60000000000000000000000000000000000083
:100D70000000000000000000000000000000000073
:100D80000000000000000000000000000000000063
:100D90000000000000000000000000000000000053
:100DA00000000000000000000000000FFFC0000075
:100DB0000000000000000101810100000080C0C0AF
:100DC0008080000001030707070707070301008071
:100DD000F03F0000000000000000000000000000E4
:100DE0000000000000000000000000000000000003
:100DF00000000000000000000000000000000000F3
:100E000000000000000000000000000000000000E2
:100E100000000000000000000000000000000000D2
:100E20000000000000000000000000000003061C9D
:100E30003060C0C0981E0F0703000000078F9FDFBF
:100E4000FF7F3F000000000080C0C060301C0E0328
:100E50000000000000000000000000000000000092
:100E60000000000000000000000000000000000082
:100E70000000000000000000000000000000000072
:100E80000000000000000000000000000000000062
:100E9000000080E0781C0E0301000000000000301C
:100EA00070F09808080C040000000000000000002A
:100EB00000000000000000000000000103061C7894
:100EC000E0800000000000000000000000000000C2
:100ED0000000000000000000000000000000000012
:100EE0000000000000000000000000000000000002
:100EF00000000000000000000000000000000000F2
:100F000000000000000000000000000000000000E1
:100F100000FCFF03000000000000000000000000D3
:100F2000000003070E0800000000000000000000A1
:100F30000000000080C0E0E0E0E0E0E0C000000071
:100F400003FFF800000000000000000000000000A7
:100F50000000000000000000000000000000000091
:100F60000000000000000000000000000000000081
:100F70000000000000000000000000000000000071
:100F80000000000000000000000000000000000061
:100F9000001FFFE000060707070707070703C0E079
:100FA000E0E0E0E0C0800000000000000000E0F0B1
:100FB000F8F8F8F0E0C00001010100000000008036
:100FC000F0FF0F0000000000000000000000000023
:100FD0000000000000000000000000000000000011
:100FE0000000000000000000000000000000000001
:100FF00000000000000000000000000000000000F1
:1010000000000000000000000000000000000000E0
:10101000000000030F3C70E0C000107060E0EFFFC4
:10102000FF7F7F3F1F070000000000000000070F48
:101030001F1F3F3F3F3B381C0C0680C0E0781C0F51
:10104000030000000000000000000000000000009D
:101050000000000000000000000000000000000090
:101060000000000000000000000000000000000080
:1010700000000000000080F8FE1F030000000000D8
:101080000103070F1F1F3E3C10000000000000007E
:10109000000000FF7F0000000000000101010000CF
:1010A000000000000000000000000000030F3EF8F8
:1010B000E000000000000000000000000000000050
:1010C0000000000000000000000000000000000020
:1010D0000000000000000000000000000000000010
:1010E0000000000000000000000000000000000000
:1010F000000000000000FFFF000000F8E08000009A
:10110000E0F0F8F8F8F8F8F8F0E00000000000006F
:1011100000000000000000000000000000000000CF
:1011200000000000000000000000000000000001BE
:101130001FFFF000000000000000000000000000A1
:10114000000000000000000000000000000000009F
:10115000000000000000000000000000000000008F
:10116000000000000000000000000000000000007F
:101170000000000000003FFFF0000003070F1F1FEA
:101180001F3F3F3F1F1F1F0F0F0300000000000005
:1011900000000080808000000000000000008080CF
:1011A00080000000000000000000000000000000BF
:1011B000F8FF0F0000000000000000000000000029
:1011C000000000000000000000000000000000001F
:1011D000000000000000000000000000000000000F
:1011E00000000000000000000000000000000000FF
:1011F0000000000000000001071F7CF0C08000001C
:10120000000000000000000000000000000000FCE2
:10121000FEFFFFFFFFFFFFFF7E0000000000030F47
:101220001F1F3F3E7C78200000000000C0F07C1FA4
:1012300007010000000000000000000000000000A6
:10124000000000000000000000000000000000009E
:10125000000000000000000000000000000000008E
:101260000000000000000000FFFFFFFFFFFFFFFF86
:10127000FEFC000000000000000000000000000074
:1012800080C0E070783C1E0F0703031FFCF0C00015
:10129000000000000000000000031FFFFCE0000051
:1012A000000000000000000000000000000000003E
:1012B000000000000000000000000000000000002E
:1012C000000000000000000000000000000000001E
:1012D000000000000000000000000000000000000E
:1012E000000000000000000007070F0F0F070703B2
:1012F00001000000000000000000000000000001EC
:1013000001010000000000000000000000030306CF
:101310000000000000000000000000001FFFFE00B1
:1013200000000000000000000000000000000000BD
:1013300000000000000000000000000000000000AD
:10134000000000000000000000000000000000009D
:10135000000000000000000000000000000000008D
:1013600000000000000000000000000000808080FD
:10137000808000000000000000000000000000006D
:10138000000000000000000000000000000000005D
:10139000000000000000000000000000E0FFFF006F
:1013A000000000000000000000000000000000003D
:1013B000000000000000000000000000000000002D
:1013C000000000000000000000000000000000001D
:1013D000000000000000000000000000000000000D
:1013E0000000000000000000F8FCFEFFFFFFFFFF10
:1013F000FFFFFFFFFEFC10000000000000000000E7
:1014000000000000000000000000000000000000DC
:1014100000000000000000000000C0F8FF3F0300D3
:1014200000000000000000000000000000000000BC
:1014300000000000000000000000000000000000AC
:10144000000000000000000000000000000000009C
:10145000000000000000000000000000000000008C
:1014600000000000000000003A003B0000003D00CA
:101470003E0000000100010000000100010000002A
:101480000100010000000100010000000100010056
:10149000000001000100000000000000000000004A
:1014A0002A2B2800000000000000000000000000BF
:1014B00000000029000000002C1E342021222434CA
:1014C0002627252E362D3738271E1F20212223249C
:1014D00025263333362E37381F0405060708090A38
:1014E0000B0C0D0E0F101112131415161718191AD4
:1014F0001B1C1D2F3130232D350405060708090A52
:101500000B0C0D0E0F101112131415161718191AB3
:101510001B1C1D2F3130354C000000000000000066
:101520000000000000000000000000007E0F00D45A
:10153000FFFFFFC70000007800AE00AF00DA0281B5
:10154000FFD9F1DB20A4A62EAF00A0C000A1C800E7
:10155000AED580A81FD300408D14200009025B0087
:10156000030100A0FA0904000001030101000921A0
:101570000101000122400007058103080001090460
:1015800001000203000000092101010002222200E3
:101590000705840308000107050403080001090486
:1015A0000200010300000009210101000122810065
:1015B0000705830308000112011001000000086103
:1015C0006E6260010001020301040330000000129A
:1015D0000353004300520041004D0042004C0045BF
:1015E00000000012036E0075006C006C0062006960
:1015F00000740073000000040309040660FF096121
:10160000A1010962150026FF0095207508810209D5
:1016100063150026FF00952075089102C005010999
:1016200002A10185020901A1000509190129051579
:10163000002501950575018102950175038103055A
:1016400001093009311581257F9502750881060948
:10165000381581257F950175088106050C0A380229
:101660001581257F950175088106C0C00501098097
:10167000A101850319012AB700150126B7009501BC
:1016800075108100C0050C0901A101850419012A0A
:10169000A002150126A002950175108100C0050168
:1016A0000906A101050719E029E71500250195089C
:1016B000750181029501750881030507190029FF4D
:1016C000150026FF009506750881000508190129F7
:1016D00005950575019102950175039103C01124CB
:1016E0001FBECFEFD8E0DEBFCDBF04B603FE27C0DC
:1016F0008091540590915505A0915605B0915705DC
:101700008730904BA740B04BD1F410925405109203
:101710005505109256051092570514BE84B7877F61
:1017200084BF0FB6F894A89580916000886180937B
:101730006000109260000FBEE0E0F8E3099511E050
:10174000A0E0B1E0E2EAFBE502C005900D92A23A0A
:10175000B107D9F725E0A2EAB1E001C01D92A43596
:10176000B207E1F70E94A5290C949E2D0C9400006D
:10177000A82FB92F80E090E041E050EA609530E07A
:1017800009C02D9182279795879510F0842795277A
:10179000305EC8F36F5FA8F30895EADF8D939D93E1
:1017A0000895CF93CFB7CF93DF93C3954B9BE9F7C2
:1017B0004B9B10C04B9B0EC04B9B0CC04B9B0AC05D
:1017C0004B9B08C04B9B06C0C0912B05C395C09393
:1017D0002B058EC06F93C0912A05DD27CE5CDA4FB2
:1017E0002F9365E54B9B03C02F916F91E1CF0F9332
:1017F0001F934F9320E040E15F9309B10C7003FB0E
:1018000027F93F9350E03BE039C01C7040642F77CC
:10181000012F5F5F1EC0406819B11C702F775250B6
:101820001FC0406409B12F770C70D1F15F5F00C019
:1018300023C0406219B12F771C7091F15F5F00C027
:1018400025C00C701027515012F45D5F000011503C
:1018500027952C3F19B1C8F61C7001270150279518
:101860002C3FC8F64227499309B10C7010274F73DB
:10187000115027952C3FA8F64695469519B11C7036
:1018800079F00127015027952C3F98F66B5A60F3A9
:10189000315009B1B0F600C012E01CBB00271CC0DB
:1018A0003B503195C31BD04012E01CBB0881033C68
:1018B00021F10B3411F1209127051981110F121319
:1018C000EDCF4A81441F093679F10D3211F0013E06
:1018D00029F74F7009F0042F009330053F915F9175
:1018E0004F911F910F912F916F91CCB3C1FD5DCF9F
:1018F000DF91CF91CFBFCF91189520913005222352
:1019000069F310912E05112309F049C034300AF40F
:1019100048C030932E052093290510912A053BE0FD
:10192000311B30932A053DC000912E050130BCF5D6
:101930000AE54F7049F43091200134FD33C0009323
:101940002001C4E0D5E032C0433059F0443091F07A
:1019500030910F0534FD26C000930F05C0E1D5E09E
:1019600025C03091480534FD1DC000934805C9E4E9
:10197000D5E01CC030911B0534FD14C000931B053D
:10198000CCE1D5E013C0052710E000C000000BB982
:101990001AC0052710E0221F1DC010E021C04AE533
:1019A00002C032ED432FC4E1D0E032E01AB11C6036
:1019B0005B9A0BB11AB95CE020E865E320FF0527CC
:1019C0000BB9279517951C3FF0F66695B8F7B1F758
:1019D00020FF05270BB9279517951C3FD0F62795B3
:1019E000179517FF052700001C3F0BB9B0F629918A
:1019F0003A9519F7037F10912F05110FC651D0406A
:101A00000BB911F01093270512E01CBB08601AB146
:101A1000137F402F437F54E05A95F1F70BB91AB961
:101A20004BB95CCF813039F0882341F0823029F402
:101A3000229A2A9A089522982A980895229AFCCFE9
:101A40000F931F938091A2018B7F813009F046C0D4
:101A500080E699E0A0E0B0E080930001909301015E
:101A6000A0930201B09303016091A3017091A401BE
:101A70008091A5019091A6010E947326009100011A
:101A800010910101209102013091030106171707FF
:101A90002807390700F50E9458266093A301709328
:101AA000A4018093A5019093A6018091A20190E0EA
:101AB000982F8827990F60E072E088599F4F0E9405
:101AC00000168091A20190E001966AE070E00E9409
:101AD0003B2D8093A2011F910F91089588E592E01C
:101AE000A0E0B0E0B9CF80E00C94120D89EA61115A
:101AF00001C08AEA0C94651C81E0089581E0089594
:101B00000C947E0D08950C94820D1F93CF93DF9358
:101B100000D000D00F92CDB7DEB749835A836B83D4
:101B20003091E10189819A8131111DC06623B9F09C
:101B30002223A9F00E94EB23182F682F89819A8114
:101B40000E94962369817A81812F0F900F900F90C8
:101B50000F900F90DF91CF911F910C9492140E94DF
:101B6000C323182FEFCF0E94EB2369817A81EDCF39
:101B7000FC01262F408151816281738184810C9404
:101B8000850DCF93DF93EC0160E00E94B80DBE019C
:101B9000DF91CF910C94830DFF920F931F93CF93FE
:101BA000DF93E82FF0E0E856FB4EF490C82FC6957F
:101BB000C695C695D0E0FE01E85DFA4E04918770A7
:101BC00010E0082E02C0159507950A94E2F70170FF
:101BD0001127C85EDA4EFE01C491D0E002C0D5954F
:101BE000C7958A95E2F7C170DD270115110519F037
:101BF00081EE0E94E81B209719F086EE0E94E81BF8
:101C00008F2D0E94651CCD2B19F086EE0E94361C8C
:101C1000012B41F081EEDF91CF911F910F91FF9049
:101C20000C94361CDF91CF911F910F91FF90089576
:101C3000EF92FF920F931F93CF93DF93EC01162F38
:101C40000AE08881882309F454C0813009F04EC02D
:101C50008981813099F47E0122E0E20EF11C8A81B3
:101C60000E94651CE7012196812F815050F3EFE916
:101C7000FFE03197F1F700C00000F7CF823041F468
:101C80007E0182E0E80EF11C8A810E94E81BEACF07
:101C9000833041F47E01E2E0EE0EF11C8A810E9465
:101CA000361CE0CF843011F02196DDCF2A812296B8
:101CB00090E080E0AE014F5F5F4F2053330B2A303E
:101CC000310548F0019778F2EFE9FFE03197F1F73D
:101CD00000C00000F7CF089FB001099F700D1124CC
:101CE000C901860F971F2981EA01E4CF0E94CC0D1C
:101CF000BACFDF91CF911F910F91FF90EF90089590
:101D000060E00C94180E8F929F92AF92BF92CF9288
:101D1000DF92EF92FF920F931F936B017C0181E0A2
:101D200090E0A0E0B0E04C015D0104C0880C991C7B
:101D3000AA1CBB1C4A95D2F7B501A4014C015D0158
:101D400004C0880C991CAA1CBB1C2A95D2F74829F0
:101D500059296A297B2904C0880F991FAA1FBB1F14
:101D60000A95D2F78A019B010C211D212E213F21CA
:101D7000041715072607370789F48C299D29AE29F2
:101D8000BF29BC01CD011F910F91FF90EF90DF9013
:101D9000CF90BF90AF909F908F9008958095909531
:101DA000A095B0958C219D21AE21BF21EACF0F9344
:101DB000382F262F60911F027091200280912102FE
:101DC00090912202042F432F0E94830E0F910C94B6
:101DD000D4220E94CA260E943525811102C00E9489
:101DE000D2250C9451110C94541108950E94FD1E9B
:101DF0000E94F50E2FEF84E39CE02150804090403C
:101E0000E1F700C000000C94B3260F931F93CF930B
:101E1000DF93EC0161E00E94B80D8C01BE010E94CD
:101E2000D712882359F1BE01C8010E94800D882372
:101E300029F1BE01C8010E9419188823F9F0BE01DA
:101E4000C8010E946B188823C9F0BE01C8010E9416
:101E50008E19882399F08A81882339F001158CE541
:101E6000180751F00E3D1C4579F0CE01DF91CF915E
:101E70001F910F910C947C0D0E94F60E80E0DF9173
:101E8000CF911F910F9108950E94D225F7CF089509
:101E90000C94470F81E008950C944A0FCF93C82FFC
:101EA0000E94480F8C2FCF910C944C0F90E080E053
:101EB00008950895FC01EE0FFF1FE85CFA4E85912E
:101EC00094910895CF93DF930E9492140E9477100B
:101ED000EC01811520E5920708F042C0811530E43D
:101EE000930708F0BDC0883E910528F5803E910516
:101EF00008F09DC0883A910588F4853A910508F06C
:101F00008FC08130910509F492C0009709F48FC009
:101F1000049708F08CC0D0E0C0E089C08F3B9105E9
:101F200008F489C0805C9109C03CD105A0F30E94EF
:101F30005A0FEC017CC08115904250F4C11581E02C
:101F4000D80708F074C0C03FD10528F3D0656FC032
:101F5000C11590E3D90708F079C0CE019F70E7CF93
:101F6000811525E5920758F5811534E5930708F0AA
:101F7000A6C0811542E5940750F4C11581E5D80744
:101F800008F471C0DC2FCC27C16FD06A50C0982FE5
:101F9000969596959E0123703327C115D34508F079
:101FA0007FC0C1E0D0E002C0CC0FDD1F2A95E2F770
:101FB00020E2929FC0011124C82BD92B6FC0C115FC
:101FC00089E5D807A8F4C11598E5D90708F07CC0C1
:101FD000C11526E5D20708F09ECF8C2F0E940E1166
:101FE000C82FD0E0DC2FCC27CC27DF71D0621FC0F8
:101FF000C1153AE5D30708F46CC0CE01905681159F
:10200000904208F088CF8D2F8F710E940E1190E0C2
:10201000982F882788279F719C012C2BE901E6CFF8
:10202000C55AD0E0C15BDE4FC881D0E0D064CE019C
:10203000DF91CF910895C85AD0E0CC0FDD1FCF5D5E
:10204000DE4F0990D881C02DD464F1CFCE019927FD
:10205000D3FF03C0EC01D86CEACFEC01D06CE7CF22
:10206000DF70D06AE4CFCE01E4E096958795EA95DB
:10207000E1F783702C2F26952695237090E2299FF7
:1020800090011124382B8C2F8370C1E0D0E002C066
:10209000CC0FDD1F8A95E2F7C22BD32BDC68C7CFAC
:1020A000C1E0D0E002C0CC0FDD1F2A95E2F730E29C
:1020B000939FC0011124C82BD92BDA68B8CFD82F31
:1020C000CC27C46FD06AB3CFDC2FCC27C06FD06AC7
:1020D000AECF8C2F8F700E940E1134E0D695C7952D
:1020E0003A95E1F7CF709C2FEC01D069A0CF8238F0
:1020F0009105B1F1B0F48133910509F475C048F44C
:102100008932910509F469C08A32910509F473C0D6
:1021100008958533910509F459C08933910501F17A
:102120000895833E9105A9F138F4803E9105F9F0B8
:10213000823E910549F10895863E9105A9F1873EB9
:102140009105C9F1843E910519F52091030521FF00
:102150001FC08091020584FD14C087EE90E00895B1
:10216000209102052370A1F080EE90E00895209167
:10217000020520FD47C03091030530FF09C024FF50
:1021800044C090E080E004C02091020522FDF7CF1A
:1021900008952091020522FD3BC03091030530FDDA
:1021A000E3CF24FFF5CFEDCF2091020523FFF0CF41
:1021B00024FDE7CFD2CF2091020523FD2CC0309122
:1021C000030531FFEECF84EE90E0089520910205E3
:1021D00025FFDECF89E290E008952091020525FFDA
:1021E000D7CF85E390E008952091020526FFD0CF58
:1021F0008AE290E008952091020526FFC9CF81E38D
:1022000090E0089589E390E0089583EE90E00895CA
:1022100082EE90E0089586EE90E008959091020598
:1022200092FF06C0282F28712830F9F4877F846038
:1022300093FF06C0282F28712831F1F4877E84612E
:102240002091030520FF06C0382F38713830D9F4AB
:10225000877F816021FF06C0282F28712831D1F4A3
:10226000877E816194FD877E0895282F2471243014
:10227000F9F68B7F8860DCCF282F2471243101F799
:102280008B7E8861DDCF382F3171313019F78E7F29
:102290008860E0CF282F2171213121F78E7E88615F
:1022A000E1CF0C94730D08950C945311E82FF0E0D6
:1022B000EA50FD4F8081089508951F93CF93DF93D7
:1022C00022E531E0C1E0D0E0D90150E040E08D915D
:1022D0008F3F91F0E82FE295EF70F0E011A18F7041
:1022E000BE0101C0660F8A95EAF7962F909591235B
:1022F00091A382A1862B82A34F5F5F4F433051058C
:1023000031F72D5F3F4F81E028353807E9F610920D
:10231000F4021092F6021092F5021092F70282E097
:102320000E94EC11DF91CF911F910C94E90EEF9276
:10233000FF920F931F93CF93DF93E4EFF2E062E5F8
:1023400071E0C0E001E010E07B0150E040E030E0EF
:10235000D7012D917D012F3FB9F0822F82958F708B
:1023600090E0DC0190968C9190E02F7002C09595E2
:1023700087952A95E2F780FD2BC0C801042E01C085
:10238000880F0A94EAF7382B4F5F5F4F43305105AF
:10239000F9F680818317F1F0308381E0C82B319604
:1023A0006D5F7F4FB1E068357B0771F62C2F42E0FF
:1023B00066EF72E084EF92E00E94ED110E94F30E4E
:1023C0008C2FDF91CF911F910F91FF90EF90089587
:1023D00080E0D9CF80E0E2CF0895FF920F931F9362
:1023E000CF93DF93F82E092F162FD72FC42F222338
:1023F00049F081E08093A9010E944C269093A801A6
:102400008093A7018091A9018823A1F08091A70161
:102410009091A8010E9464260B9760F0EF2DF02F99
:10242000A12FBD2FCE0FDF2FD11DEC17FD0741F4DB
:102430001092A901DF91CF911F910F91FF90089504
:1024400081918D93F2CF0C94760D56985E9A5798A1
:102450005F9A89B186FB882780F929B130E0220F85
:10246000232F221F330B90E0232B09F092E0892BBE
:102470008093AC010895E091AC01EE0FEE0FE09374
:10248000AC0189B186FB222720F989B190E0880F41
:10249000892F881F990B009711F082E090E0822B22
:1024A000E82BE093AC01EF70F0E0E85AFE4F80813A
:1024B0009091AB01890F8093AB0184304CF08091F7
:1024C000AA018F5F8093AA0160E080E00E9423123E
:1024D0008091AB018D3F4CF48091AA018150809393
:1024E000AA0161E080E00E9423128091AB01837811
:1024F00087FF03C081508C6F8F5F8093AB0108957D
:1025000082E290E00E945C2D813289F483E290E0C7
:102510000E945C2D813159F484E290E00E945C2D90
:1025200091E0803309F090E0892F8170089580E078
:10253000FCCFCF93C82F6FEF811161E282E290E070
:102540000E946A2D6FEFC11161E183E290E00E9469
:102550006A2D6FEFC11160E384E290E0CF910C949B
:102560006A2D80E00E9499120C942F25089585E22F
:1025700090E00E945C2D682F70E090E080E008956C
:1025800085E290E00C946A2D0E94B6120E9480129F
:1025900081110CC060E070E0CB010E94C0120E946B
:1025A0000C140E94F61481E00C9499120895CF93B4
:1025B000FB01C281CC2309F19C0122513F4520310E
:1025C000310520F582510E940615C0E08C2FCF9175
:1025D000089581E00E94FA2243E062E081E00E94D7
:1025E000D70EF3CF81E00E941B2343E062E081E03D
:1025F0000E94D70EEBCF82E0F6CF8031FFE59F0738
:1026000089F381319F45B9F3C1E0E0CF8031EFE537
:102610009E07F9F281319F45C9F682E0DBCF2FEFAB
:10262000FC01208308951F93CF93DF93EC01162FB5
:10263000E881E150E33108F055C0F0E0E056F24D9A
:102640000C944F2D198289E08A83612FCE01DF918E
:10265000CF911F910C94CE2A89818230B1F08330C2
:1026600059F08130A9F40E9458260E94552D6A83A2
:102670007B838C839D83E9CF80E00E9456118A83FF
:1026800081E00E9456118B83E0CF0E94B712EDCFFC
:10269000612FCE010E940F13D8CF89818230C1F7FC
:1026A0006A817B818C819D810E94552D0E94C01280
:1026B000CCCF4B816A8189810E94DE1398278927BC
:1026C00098279D838C83C1CF2C813D81322723277E
:1026D00032274B816A8189810E94F713B6CF0E940D
:1026E0000C14B3CF8FEF8883B0CF0E949F148983DF
:1026F000ACCF0E94A1149827892798279A838983B1
:10270000A4CF6B8170E089819A81AE014C5F5F4FED
:102710009827892798270E94A41497CF6B8170E08F
:1027200089819A81AE014C5F5F4F9827892798274E
:102730000E94CB148ACF0E94F61487CF0E94CC133C
:10274000D6CF6B8170E089819A81AE014C5F5F4F7B
:102750009827892798270E94441477CF6B8170E0CF
:1027600089819A81AE014C5F5F4F9827892798270E
:102770000E9469146ACF0E94B11267CF0E94CE2ACC
:102780002FEF81EE94E0215080409040E1F700C0AF
:1027900000000E94B32659CF84E0089550E0440F12
:1027A000551F96E0699F400D511D11249CE0899FA3
:1027B000400D511D1124CA01869608950F931F9351
:1027C000CF93DF930E94CE138C010E945C2DC82F03
:1027D000D0E0DC2FCC27C80101960E945C2D9E0121
:1027E000282BC901DF91CF911F910F9108950F936D
:1027F0001F93CF93DF93122F032F0E94CE13EC0170
:10280000602F0E946A2D612FCE010196DF91CF913A
:102810001F910F910C946A2DEF92FF920F931F93CB
:10282000CF93DF9308E614E1C0E07801D0E0F70130
:10283000259134914D2F60E08C2F0E94F71382E098
:10284000E80EF11CDF5FD33091F7780186E0E80EE7
:10285000F11CD0E0F701259134914D2F61E08C2FD0
:102860000E94F71382E0E80EF11CDF5FD33091F78E
:10287000045F1F4FCF5FC430C1F6DF91CF911F912E
:102880000F91FF90EF900895EF92FF920F931F9397
:10289000CF93DF93EC018A017C01E60EF71ECE0197
:1028A0008696CE15DF0539F4DF91CF911F910F91F8
:1028B000FF90EF900895C033D10540F40E945C2D45
:1028C000F80180830F5F1F4F2196E9CFF801108236
:1028D000F9CFCF92DF92EF92FF920F931F93CF9396
:1028E000DF937C016A018C01060F171FEC01CE01FA
:1028F0008696C017D10749F4DF91CF911F910F91B0
:10290000FF90EF90DF90CF900895C033D10540F451
:10291000FE01EE19FF09EC0DFD1D60810E946A2D7C
:102920002196E5CF462F843038F4723028F4633096
:1029300018F4672F0C94DE1390E080E0089580E196
:1029400008958AEA93E00895EF92FF920F931F9300
:10295000CF93DF93EC018A017C01E60EF71ECE01D6
:102960008A5A9F4FCE15DF0539F4DF91CF911F9121
:102970000F91FF90EF900895CA3A23E0D20740F4F8
:102980000E945C2DF80180830F5F1F4F2196E7CFD7
:10299000F8011082F9CFCF92DF92EF92FF920F935E
:1029A0001F93CF93DF937C016A018C01060F171FE1
:1029B000EC01CE018A5A9F4FC017D10749F4DF912D
:1029C000CF911F910F91FF90EF90DF90CF900895DE
:1029D000CA3A23E0D20740F4FE01EE19FF09EC0DDC
:1029E000FD1D60810E946A2D2196E3CFCF93DF9376
:1029F000C6E5D0E060E0CE010E946A2D2196C115A7
:102A000084E0D807B9F7DF91CF910895DF92EF9274
:102A1000FF920F931F93CF93DF9300D000D0CDB7D9
:102A2000DEB7F82E8FE08F1540F08FEF93E00E9415
:102A30005C2D06E510E08823C1F00F900F900F90F9
:102A40000F90DF91CF911F910F91FF90EF90DF904A
:102A50000895011584E0180781F3C8010E945C2DD8
:102A6000811101C0FA940F5F1F4FF110F2CF19824C
:102A70001A821B821C82DD24D39478018FEFE81A1E
:102A8000F80AC8010E945C2D89831A828823A9F262
:102A90009FEF980F933078F48A83D9820E5F1F4F8F
:102AA000C7010E945C2D8B83882339F2CE010196E9
:102AB0000E94800EE2CF8701F9CFCF92DF92EF9292
:102AC000FF920F931F93CF93DF936C017B0164E61A
:102AD00070E088E70E94BE19EC0197FD12C010E07B
:102AE00000E0F601E00FF11F849164E670E00E94BF
:102AF0001A1AEC01892B29F40F5F1F4F0E151F05C1
:102B000081F70E949D1ACE01DF91CF911F910F9105
:102B1000FF90EF90DF90CF9008950895E8EFF2E0F6
:102B200080E092E0DF019C011D9221503040E1F7EE
:102B3000F093FD04E093FC048FEF9FEF9093D3019B
:102B40008093D20108950E948D158093CE0180FD5F
:102B50000FC080E88093CD010E94B8196DE070E04D
:102B60008FE495E10E945D15892B21F080E00895A6
:102B700080E2F0CF8091CE0163E070E081FD26C05D
:102B80008CE495E10E945D15892B81F76DE070E082
:102B90008CE395E10E945D15892B41F70E94582630
:102BA000605A75418F4F9F4F6093F8047093F904FA
:102BB0008093FA049093FB040E948E1581E0809329
:102BC000D1018093D0011092CF01089589E495E15D
:102BD000D9CF2091CD0136E0839FC0011124629F9F
:102BE000800D911D1124811522E0920714F090E0D0
:102BF00080E088509D4F9093FD048093FC040895DD
:102C00000F931F93CF93DF93613002E0700710F0B2
:102C100060E072E04091D2015091D301A8EFB2E0A0
:102C200030E020E0C1E0D0E02617370749F45093A8
:102C3000D3014093D201DF91CF911F910F9108955D
:102C4000FC01E20FF31FE491FC91FE1781F0EC937D
:102C5000F90115E0F695E7951A95E1F78E0102C0A6
:102C6000000F111FEA95E2F7F801402B5F2B2F5F51
:102C70003F4F1196D9CF0E945826605A75418F4F09
:102C80009F4F6093F8047093F9048093FA04909333
:102C9000FB048091D001811108C062E070E08AE3FA
:102CA00095E10E945D15892B19F08091D00108955E
:102CB00081E08093D001F9CF2F923F925F926F9283
:102CC0007F928F929F92AF92BF92CF92DF92EF92BC
:102CD000FF920F931F93CF93DF932091D2013091F6
:102CE000D3012115310531F08091CF0161E070E011
:102CF000882399F0DF91CF911F910F91FF90EF9072
:102D0000DF90CF90BF90AF909F908F907F906F900B
:102D10005F903F902F9008958F5F082F10E01B0168
:102D2000082E02C0220C331C0A94E2F7A9014221AA
:102D30005321452B89F39091CE0190FD44C082959B
:102D4000880F8076809306019801369527953695F1
:102D5000279520930901815E8093070110920A0153
:102D600024E630E047E050E064E071E088E70E944C
:102D7000491A892B09F0BECFA80125E0440F551F41
:102D80002A95E1F78091CE0180FD2BC048505D4F20
:102D900004E610E020E230E060E488E70E94701A68
:102DA000892B09F0A7CF0E943B16E101C095D09571
:102DB0008091D2019091D301C823D923D093D3011C
:102DC000C093D20197CF880F880F880F8093060198
:102DD00010920901895F8093070183E080930A01C3
:102DE000BFCFEDEAF1E080E2DF011D928A95E9F7BD
:102DF000ACE6B1E008E611E080E7C82E81E0D82E0D
:102E000097E0592E772473948D91E80129918E01D2
:102E1000240F352F311D28503D4FE82FF0E0E355AA
:102E2000FE4F90E080E0652C681A872C082E01C0C8
:102E3000880C0A94EAF77901A12CE701B9907E0188
:102E4000B820662D6A196770962E062E000C770B37
:102E5000DB2D01C0DD0F9A94EAF771956195710938
:102E60006770772701C0B6946A95EAF7BD2A60813A
:102E7000962E9B289082A39468E0A612DECF01963E
:102E800031968830910579F6CA16DB0609F0BCCF79
:102E900004E610E020E230E04DEA51E07DCF809181
:102EA000D001882369F062E070E088E395E10E9438
:102EB0005D15892B19F08091D00108951092D001F1
:102EC0008091D00191E0892708950F931F938091FD
:102ED000D101882301F160E080E00E94E9150E94A1
:102EE000200D0E945C168091D0018823A1F00E94E1
:102EF00058260091F8041091F9042091FA043091B9
:102F0000FB04601B710B820B930B97FD04C01F9198
:102F10000F910C944F171F910F910895AF92BF928C
:102F2000CF92DF92EF92FF920F931F93CF93DF9395
:102F30007C015B01C42FD22FFC0182818823F9F030
:102F40004093D6010E944C269093D5018093D401E2
:102F500080E28C0F883008F061C0C77081E001C04A
:102F6000880FCA95EAF7DF91CF911F910F91FF90DB
:102F7000EF90DF90CF90BF90AF900C947D1C10919C
:102F8000D601141340C08091D4019091D5010E94C4
:102F900064266C01B701C5010E947321C816D906C9
:102FA00090F5C0E2CD0F1D17B9F080E2810F883097
:102FB00040F4177081E001C0880F1A95EAF70E946B
:102FC000841CC83048F481E09D2F977001C0880FA1
:102FD0009A95EAF70E947D1C802F0E94651CC830DC
:102FE000E8F4D77081E001C0880FDA95EAF7DF9145
:102FF000CF911F910F91FF90EF90DF90CF90BF90F6
:10300000AF900C94841C80E28C0F883038F4C77029
:1030100081E001C0880FCA95EAF7E9CFDF91CF912F
:103020001F910F91FF90EF90DF90CF90BF90AF90E6
:1030300008950F939C01CB01233F4CE5340759F1D0
:10304000A8F4283DFCE53F0701F1293D4CE5340794
:10305000D1F1273D3C4591F406E221EE41EE67EDCA
:103060007CE50E948E1780E00F910895253FFCE5D6
:103070003F07E9F0B0F0263F3C45F9F0FC018281C2
:10308000882339F11092D601EFCF07E225EE45EE05
:1030900068ED7CE5E6CF06E221EE40EE63EF7CE5ED
:1030A000E0CF07E225EE44EE64EF7CE5DACF06E2FE
:1030B00021EE42EE65EF7CE5D4CF07E225EE46EE49
:1030C00066EF7CE5CECF08E221E045EE69ED7CE5D8
:1030D000C8CF81E0C9CFCF93DF93EC01FB018281A0
:1030E000882309F419C1C230FCE5DF07C0F1C631FD
:1030F0009CE5D90730F09E012A5F3C452930310517
:1031000070F50E9448259093030580930205C03115
:10311000ECE5DE0709F4CFC008F05BC0C8308CE5F1
:10312000D80709F4B6C088F5C430ECE5DE0709F429
:10313000A8C0C0F4C2308CE5D80709F49CC08091C7
:1031400002058260C330DC4509F498C08091020515
:10315000909103050E9456250E94FD1E80E0DF919C
:10316000CF910895809102058061C630ECE5DE07BD
:1031700009F484C0809102058860C730DC4508F4FA
:103180007DC080910205806279C0CC308CE5D80783
:1031900009F489C070F4809102058C60CA30ECE5B6
:1031A000DE0709F46BC008F478C0809102058E7FB9
:1031B00065C0CE308CE5D80709F479C0809102054E
:1031C0008B7FCF30DC4508F459C0809102058F7E9B
:1031D00055C0CB3FECE5DE0709F457C030F5C331ED
:1031E0008CE5D80709F46FC078F4C131ECE5DE074F
:1031F00009F465C0C231DC4509F0A8CF0E94FD1E6C
:10320000809102058F773AC0C5318CE5D80709F463
:1032100062C008F476C0809103058160CA3FDC4536
:1032200009F094CF8093030591CFCF3FFCE5DF07F2
:1032300009F44DC088F4809103058D7FCD3F9CE556
:10324000D90781F3809103058E7FCE3FDC4550F393
:10325000809103058360E6CFC130FDE5DF0709F407
:1032600059C008F444C080E0C230DD4509F06ECF9B
:103270000E94D4256BCF8091020581608093020566
:1032800065CF809102058460F9CF8091030582604B
:10329000C9CF809102058064F1CF0E94FD1E80910C
:1032A00002058068EBCF809102058D7FE7CF80918A
:1032B0000205877FE3CF809102058F7DDFCF80916C
:1032C00002058F7BDBCF80910205837FD7CF809172
:1032D00003058C7FA7CF8091020582FB992790F987
:1032E00021E0922790FB82F990FB83F9C7CF809170
:1032F0000305982F909591708E7F892B90FB81F913
:1033000091CF0E94FD1E90910205892F97FB87F9AE
:103310008058B4CF81E0ACCF81E021CFCF93DF9351
:10332000EB0186319C4511F50E9480249A819923F6
:1033300099F08A7A91E009F490E09093D701811195
:1033400009C089E20E945B240E94CC2480E0DF91C6
:10335000CF91089585E3F6CF8091D701811104C004
:1033600089E20E946224F0CF85E3FBCF81E0EFCFBA
:103370001092B9008CE08093B8000895EF92FF920C
:103380000F931F93CF93DF93182FEB011092BC0084
:1033900084EA8093BC000E944C267C018091BC0092
:1033A00087FF27C08091B900887F883029F08091FD
:1033B000B900887F8031D9F51093BB0084E88093F1
:1033C000BC000E944C268C018091BC0087FF24C069
:1033D0002091B900287F90E080E02831B1F081E0B1
:1033E00090E0203411F490E080E09195819591096E
:1033F0000CC0CF3FDC0791F20E944C268E199F092A
:103400008C179D0758F28EEF9FEFDF91CF911F91A0
:103410000F91FF90EF900895CF3FDC07A9F20E9433
:103420004C26801B910B8C179D0770F2ECCF8FEF11
:103430009FEFEBCF0F931F93CF93DF93EB0180931D
:10344000BB0084E88093BC000E944C268C018091D4
:10345000BC0087FF11C02091B900287F81E090E077
:10346000283211F490E080E0919581959109DF91E7
:10347000CF911F910F910895CF3FDC0741F30E9438
:103480004C26801B910B8C179D0708F38EEF9FEF46
:10349000EECFCF92DF92EF92FF920F931F93CF93D5
:1034A000DF936B018A017901B9010E94BE19E6011F
:1034B0000C0D1D1DC017D10761F424E92093BC0039
:1034C000DF91CF911F910F91FF90EF90DF90CF9000
:1034D000089597FDF2CFB70189910E941A1AEACF99
:1034E000CF92DF92EF92FF920F931F93CF93DF93D0
:1034F000C62F6A017901B8010E94BE1997FD0CC060
:10350000B8018C2F0E941A1AE601EC0CFD1CCE1596
:10351000DF0511F097FF0CC024E92093BC00DF9178
:10352000CF911F910F91FF90EF90DF90CF90089572
:10353000B80189910E941A1AEACF84E98093BC00ED
:1035400008959093DD018093DC010895E091DC0102
:10355000F091DD01309721F00190F081E02D099488
:1035600080E00895E091DC01F091DD01309721F0D9
:103570000280F381E02D09940895E091DC01F0913F
:10358000DD01309721F00480F581E02D0994089544
:103590002091DA013091DB012817390771F09093FF
:1035A000DB018093DA01E091DC01F091DD013097DD
:1035B00021F00680F781E02D099408952091D8012B
:1035C0003091D9012817390771F09093D901809370
:1035D000D801E091DC01F091DD01309721F0008409
:1035E000F185E02D09940895089508950C94F41A36
:1035F00008950C94F81A0E94F51A0C94F61A81E0BA
:1036000008950C94FF1A0E9443260E945D110E94A7
:10361000C41280E00E94A3150E94E1260E94251298
:103620000C94F91AAF92BF92CF92DF92EF92FF9271
:103630000F931F93CF93DF93CDB7DEB72A970FB6C3
:10364000F894DEBF0FBECDBF0E949711B82E0E9426
:10365000011B3FEDC32E31E0D32E10E000E08111BD
:103660001CC08FEF89838A831B820E944C26816055
:10367000782F9D838C8349815A816B818D810E9433
:10368000B91B41C080E026C081E092E0F92E22C043
:103690000130110531F301E010E0A02E802F0E94CF
:1036A0005611E82EF601F1906F01F81689F380911A
:1036B000340281FD0E945C118F2D8E25F82FF17050
:1036C000FF2E80FDDFCF81FDDFCF82FFE1CF82E0E3
:1036D00024E0F22E8E83AF82EF2081E009F480E0B7
:1036E00088870E944C268160782F9A8789874E812F
:1036F0005F8168858A850E94B91BF801E152FE4FFF
:103700008081F826F0820E943B120E946517B1105A
:103710000E943B160E948C280E94A61A9091DE01FE
:103720008917B1F00E94A61A8093DE012A960FB67F
:10373000F894DEBF0FBECDBFDF91CF911F910F91E7
:10374000FF90EF90DF90CF90BF90AF900C944E0F12
:103750002A960FB6F894DEBF0FBECDBFDF91CF9192
:103760001F910F91FF90EF90DF90CF90BF90AF909F
:103770000895CF93DF93CDB7DEB72B970FB6F894AC
:10378000DEBF0FBECDBF4F83588769877A878B878F
:103790001E821D8285E0FE013796DE0111960190A2
:1037A0000D928A95E1F749815A816B817C818D81E7
:1037B0009E812B960FB6F894DEBF0FBECDBFDF9172
:1037C000CF910C947621FC01808191810C942D2461
:1037D000CF93C82F882309F447C08CEF8C0F813A10
:1037E000A0F46C2F80910B0190910C010E94EB25AD
:1037F000882329F08C2F0E9462240E94CC248C2FD5
:103800000E945B24CF910C94CC2480E28C0F8830F2
:1038100048F4C77081E001C0880FCA95EAF70E949A
:103820008324F0CFEBE5EC0FE33040F4F0E0E25618
:10383000FE4F808190E0CF910C94C81AE8E5EC0F20
:10384000E73150F4F0E0EE0FFF1FE059FE4F8081AA
:103850009181CF910C94DE1AC03F30F08C2F0E94E2
:103860008627CF910C947128CF910895882361F118
:103870009CEF980F913A20F40E9462240C94CC247F
:1038800090E2980F983050F4877091E001C0990F42
:103890008A95EAF7892F0E948924F0CF9BE5980F3B
:1038A000933020F490E080E00C94C81A98E5980FCB
:1038B000973120F490E080E00C94DE1A803F20F0F5
:1038C0000E94EE270C9471280895CF93C82F0E9470
:1038D000E81BC93369F42FEF87EE93E02150804055
:1038E0009040E1F700C000008C2FCF910C94361C63
:1038F0008FE39CE90197F1F7F5CF882321F00E942F
:1039000083240C94CC240895882321F00E948924D8
:103910000C94CC240895BF92CF92DF92EF92FF9245
:103920000F931F93CF93DF936C01D62FC72FFC010A
:10393000058102950F70128111110E94A0240E942E
:103940007924E82E882391F01123D1F08C2F807FE9
:10395000803421F080E28D0F883090F082E00E9468
:1039600017250E94792491E0E82EE926BC2EB29416
:103970009FE0B922EB2DF0E0ED54F24D0C944F2D69
:10398000E12CF4CF0C2F0F70C07F11F00295007F57
:103990001123A9F0002359F080E28D0F883010F038
:1039A000D11109C0802F0E9483240E94CC248D2F26
:1039B0000E94E81B14C0802F0E949324F6CF8D2F05
:1039C0000E94361C002359F080E28D0F883010F0E1
:1039D000D1112BC0802F0E9489240E94CC24EB2D72
:1039E000E850FF0B349720F40E94A61A0E944E0F55
:1039F000EE2009F4A3C10E94752480FD9FC1F60149
:103A000012820E946F240E94FA22C6010E94BF1EE9
:103A10000E946F24DF91CF911F910F91FF90EF9043
:103A2000DF90CF90BF900C941B23802F0E9499248D
:103A3000D4CFFC2FFF70FF2EC07FC03219F0F2945C
:103A400080EFF822DD2369F0D13049F1112391F1A3
:103A5000002351F1F601858180FFA9CF8F70858306
:103A600023C0112381F0011106C00E94B3248F29C5
:103A70000E947D1CB4CF0130C1F70E94B3248F296E
:103A80000E94B924ACCF011106C00E94C2248F2D20
:103A90000E94841CA4CF013009F4A1CFF6CF1123DA
:103AA00029F0063008F09BCF8F2DE2CF053008F0CB
:103AB00096CFEDCF002359F3D93309F027C1FFEF9B
:103AC00027EE33E0F15020403040E1F700C0000025
:103AD0008D2F0E94361C83CF8C2F86958695837000
:103AE00069F0813009F07BCF8D2F9C2F93701111DD
:103AF00002C090E080E00E94DE1A71CF8D2F9C2FD3
:103B00009370111102C090E080E00E94C81A67CF44
:103B10008D2F112329F00E9486270E9471285FCFE4
:103B20000E94EE27FACF8C2F837009F041C011114B
:103B300056CF4D2F429546954770440F440F0D2F99
:103B40000F7010E030E020E0042E04C0000F111FC1
:103B5000221F331F0A94D2F760E070E0CB01D4FF3C
:103B60000FC06FE070E080E090E004C0660F771F48
:103B7000881F991F4A95D2F760957095809590950A
:103B8000C695C695C370602B712B822B932BC230C8
:103B900049F058F4C13019F00E94AC2220CF0E94A5
:103BA0009A221DCF0E94BE221ACF0E94982217CFC0
:103BB0008695112311F08C2F8170882309F40FCF83
:103BC0004D2F429546954770440F440F0D2F0F70AF
:103BD00010E030E020E0042E04C0000F111F221F6F
:103BE000331F0A94D2F760E070E0CB01D4FF0FC01E
:103BF0006FE070E080E090E004C0660F771F881FE0
:103C0000991F4A95D2F76095709580959095C695C5
:103C1000C695C370602B712B822B932BC23049F059
:103C200058F4C13019F00E947123D9CE0E945F234D
:103C3000D6CE0E948323D3CE0E94D422D0CECF7082
:103C4000112329F08C2F0E94FA228D2F11CF8D2F56
:103C50000E94841C8C2F0E941B23C1CED23F89F16D
:103C600060F4D03FC9F0D13F29F1112309F442C0DB
:103C700001119DCE8C2F8F7121C0D33F39F1D43FDC
:103C8000A1F7112369F1CF718C2F0E94FA2263E012
:103C90008C2F0E940225A3CE112341F0053008F09D
:103CA0009ECE8C2F8F710E943E2399CE063008F055
:103CB00096CEF7CF8C2F8F71112369F20E94FA22D2
:103CC0008ECE8C2F8F711123C9F3C5CF112329F00C
:103CD0008C2F8F710E94E52282CE0E94E0227FCE3F
:103CE00081E00E941725023008F479CE82E00E941C
:103CF000172575CE002379F0D93341F49FEFE7EE15
:103D0000F3E09150E040F040E1F7E0CE8FE39CE932
:103D10000197F1F7DBCE8C2F8F719DCF4C2F4F7019
:103D20006D2FC6010E94560F0E94102258CE4C2FB4
:103D30004F706D2FC6010E94590F51CEDF91CF9168
:103D40001F910F91FF90EF90DF90CF90BF9008955B
:103D50000F931F93CF93DF93EC01688179818A8160
:103D60000E9437248C010E9495230E949722B8015B
:103D7000CE01DF91CF911F910F910C948B1CCF93AB
:103D8000DF93EC018B819C81892B29F088819981BB
:103D900089238F3F59F4DF91CF910895CE010E947E
:103DA000A81ECE01DF91CF910C94C10DCE010E94CF
:103DB000050F8111F3CF0E947924882361F38A8152
:103DC000882349F382E0DF91CF910C9417250E945C
:103DD000A0240E94B0240E94CC240E9497290E9413
:103DE000712890E080E00E94C81A90E080E00C9476
:103DF000DE1A0E9469240C94E71E0E9490240C9401
:103E0000F91EE92FE295EF70E250EE3070F4F0E029
:103E1000ED53F24D0C944F2D803F19F020F4883E65
:103E200020F481E00895843FE1F380E00895883E26
:103E3000C0F3813FD1F7F5CF93FB882780F9089530
:103E40000E942D240C94011FCF93DF9300D000D04B
:103E50000F92CDB7DEB70F900F900F900F900F908D
:103E6000DF91CF910895CF93DF9300D000D000D0A1
:103E7000CDB7DEB726960FB6F894DEBF0FBECDBF26
:103E8000DF91CF9108951F93CF93DF93C091E2010B
:103E900016E08091E3018C1304C0DF91CF911F9154
:103EA0000895D0E01C9FF0011D9FF00D1124EC51EE
:103EB000FE4F4081518162817381848195810E948E
:103EC000331F2196C770E5CF40911402509115021F
:103ED0006091160270911702809118029091190258
:103EE0000C94331F1F93CF93DF9380911902807F2F
:103EF000A9F480911602882389F08091E201C09193
:103F0000E3016091140270911502A0911702B09123
:103F10001802D62FD72316E0C81304C0DF91CF9123
:103F20001F91089590E0109711F0DF3F19F401966A
:103F30008770F2CF189F9001199F300D1124F9015D
:103F4000EC51FE4F41814713F2CF40814613EFCF32
:103F500042814111ECCF438154814A1B5B0B483CA9
:103F6000510528F7809119028F70806180931902A2
:103F7000F901E751FE4F80818F708061808384E179
:103F800092E00E94BF1EDF91CF911F910C94431FBE
:103F9000AF92BF92CF92DF92EF92FF920F931F9357
:103FA000CF93DF93CDB7DEB761970FB6F894DEBF3E
:103FB0000FBECDBF8C0185E0F801DE011D9601909A
:103FC0000D928A95E1F7F80140815181E28084E108
:103FD000C82E82E0D82E60911702709118026115E8
:103FE000710509F461C19091140220911502892F85
:103FF00082238F3F09F458C1A380B480F090160249
:10400000F501E61BF70BFF2009F4FCC080911902B3
:10401000382F307FE83CF10508F0B2C0311179C08B
:10402000FE2C251323C0941321C0E1101FC08F70F4
:104030008061809319020E94641FC6010E94BF1E06
:1040400080911902F80185838F2D61960FB6F8943F
:10405000DEBF0FBECDBFDF91CF911F910F91FF90BB
:10406000EF90DF90CF90BF90AF900895AB2829F0EC
:10407000842F85238F3F09F033C180E0F82FF17042
:10408000DF2E80FF3CC08091E2012091E30136E009
:10409000821315C04D875E878D859E850E942D24D5
:1040A000292F22952F702230F0F0243018F59F70C0
:1040B000F1F0F8019581907FD1F4D12C1EC090E0F1
:1040C000389FF001399FF00D1124EC51FE4F6181B2
:1040D000651306C06081641303C062816E110FC056
:1040E00001968770D5CF9F7011F0882331F3805EE1
:1040F000883018F3C8010E94BF1EFD2CA5CFEE200A
:1041000009F4A2CF80911902816080931902F12CE9
:104110009BCF251306C0941304C0F801EE2009F4C8
:104120008DC04D875E878D859E850E94201F8823C8
:1041300019F1EE2009F180911902803270F020917E
:1041400014023091150238872F831986BB86AA8600
:104150008C87CE0107960E94BF1E86E0F801A4E17D
:10416000B2E001900D928A95E1F70E94721F0E94C1
:10417000641FFF24F39468CFC8010E94BF1EF9CFCB
:10418000311113C07A2DB98AA88A6E2D89890E94AF
:10419000241F84E192E00E94BF1E86E0F601119286
:1041A0008A95E9F70E94641FB2CF25130FC09413BC
:1041B0000DC0E1100BC0F8018583C8010E94BF1E2D
:1041C00086E0F60111928A95E9F73ECF4D875E872A
:1041D0008D859E850E94201F882371F2EE2061F25A
:1041E00080911902803208F4B8CF209114023091E6
:1041F00015023A8329831B82BD82AC828E83CE0155
:104200000196A9CFE83CF10508F041C0FE2CEE2054
:1042100009F4B2CF25132AC0941328C08091190243
:1042200080FD1BC0982F907FC1F0F8018583903FDF
:1042300031F0982F907F905F8F70892B8583C80114
:104240000E94BF1E86E0F801A4E1B2E001900D9249
:104250008A95E1F70E94641FF7CE86E0F801A4E199
:10426000B2E001900D928A95E1F7EECE4D875E8720
:104270008D859E850E94201F81116FCF809119022C
:10428000816080931902C8010E94BF1EDDCE7A2D85
:10429000B98AA88A6E2D89890E94241F86E0F601BA
:1042A00011928A95E9F7D6CFEE2009F465CF4D87B4
:1042B0005E878D859E850E94201FF82E882309F435
:1042C0005BCF86E0F801A4E1B2E001900D928A95FF
:1042D000E1F784E192E00E94E31B0E94721FBACFD3
:1042E00081E08E25CBCE88EC90E008951F93CF938C
:1042F000DF93CDB7DEB72C970FB6F894DEBF0FBEB5
:10430000CDBF4F83588769877A878B879C87CE017B
:1043100007960E94C81F882369F08A859B85892B90
:1043200039F04F815885842F85238F3F09F071C064
:1043300016E05FC086E0FE013796DE01119601901F
:104340000D928A95E1F78A859B85892B89F38F8168
:10435000988589238F3F61F32091E30130E0C90103
:104360000196877099274091E2014817190671F468
:104370000E94FD1E1092E3011092E20186E0E4E14A
:10438000F2E0DF011D928A95E9F7D2CF96E0929F85
:10439000D001939FB00D1124AC51BE4FFE01319658
:1043A00001900D929A95E1F78093E3010E94431FDB
:1043B000BFCF819FC00111248C519E4F0E94C81F06
:1043C0008823E9F0E091E2011E9FF0011124EC51F5
:1043D000FE4F4081518162817381848195810E9469
:1043E000331F8091E20190E00196877099278093B6
:1043F000E2018091E2019091E3018913DACF2C96DA
:104400000FB6F894DEBF0FBECDBFDF91CF911F91E5
:10441000089569857A858B859C850E94331F88CF96
:10442000EF92FF920F931F93CF93DF938C01892B11
:1044300081F0F12CEE24E394E8012196F8018491B7
:10444000843770F4843008F05FC08130B1F082307E
:10445000A1F1DF91CF911F910F91FF90EF900895FF
:10446000853709F44CC008F43DC09CE7980F90379D
:1044700080F78F770E94361C49C00E5F1F4FFE01E8
:10448000849190E2980F983060F48770FE2D01C0FF
:10449000FF0F8A95EAF78F2F0E94A3240E94CC2455
:1044A00002C00E94E81B8F2D815030F2EFE9FFE03F
:1044B0003197F1F700C00000F7CF0E5F1F4FFE01EC
:1044C000849190E2980F983050F48770FE2D01C0CF
:1044D000FF0F8A95EAF78F2F0E94A924DFCF0E9451
:1044E000361CE1CF0E5F1F4FFE01C491C150D8F2C0
:1044F0008FE99FE00197F1F700C00000F7CF0E5F52
:104500001F4FFE01F490CFCF0E94E81B8E01CBCF4E
:1045100008950C9488220E9489226093230270934C
:10452000240280932502909326020C94E71E08959E
:104530000C948B220F931F9300912302109124025D
:104540002091250230912602602B712B822B932B18
:104550001F910F910C948B220F931F9300912302B4
:1045600010912402209125023091260260237123AC
:10457000822393231F910F910C948B220F931F93EF
:1045800000912302109124022091250230912602ED
:1045900060277127822793271F910F910C948B22FC
:1045A0000C9488220C94D0220E94D22260931F0285
:1045B0007093200280932102909322020C94E71EB4
:1045C00060E070E0CB010C94D4220F931F9341E084
:1045D00050E060E070E08A019B0104C0000F111FF1
:1045E000221F331F8A95D2F7C901B8011F910F917D
:1045F0000C94D4220F931F9341E050E060E070E0F0
:1046000004C0440F551F661F771F8A95D2F780910B
:104610001F0290912002A0912102B09122028A01F2
:104620009B01082B192B2A2B3B2BC901B8011F9189
:104630000F910C94D4220F931F9341E050E060E05F
:1046400070E004C0440F551F661F771F8A95D2F78C
:10465000CB01BA01609570958095909500911F02ED
:1046600010912002209121023091220260237123B7
:10467000822393231F910F910C94D4220F931F93A5
:1046800041E050E060E070E004C0440F551F661F39
:10469000771F8A95D2F780911F0290912002A091F6
:1046A0002102B09122028A019B01082719272A279B
:1046B0003B27C901B8011F910F910C94D4220F938D
:1046C0001F9300911F02109120022091210230912E
:1046D0002202602B712B822B932B1F910F910C9434
:1046E000D4220F931F9300911F021091200220915A
:1046F00021023091220260237123822393231F9190
:104700000F910C94D4220F931F9300911F021091CC
:1047100020022091210230912202602771278227F6
:1047200093271F910F910C94D4220895E92FEE0F37
:104730009E0F890F982F977041E001C0440F9A9502
:10474000EAF786958695869595E0899FF001112474
:10475000E65EFD4F30E020E070E05191DF011197FF
:10476000CB01022E02C0969587950A94E2F78170DC
:1047700081958527842385278C932F5F3F4F253094
:10478000310559F70895E92FEE0F9E0F890F982FE5
:10479000977086958695869525E0829FF001112475
:1047A000E65EFD4F50E040E080E0219130E0092ED0
:1047B00002C0369527950A94E2F721703327042E1C
:1047C00001C0220F0A94EAF7822B4F5F5F4F4530FA
:1047D000510559F70895BF92CF92DF92EF92FF9261
:1047E0000F931F93CF93DF938C01C0901F02D09043
:1047F0002002E0902102F090220280912302909109
:104800002402A0912502B0912602C82AD92AEA2AB8
:10481000FB2ACFE1D0E0BC2ED701C6010C2E04C08C
:10482000B695A795979587950A94D2F780FD0EC007
:10483000219788F7B12C8B2DDF91CF911F910F918C
:10484000FF90EF90DF90CF90BF900895B8018C2F2C
:104850000E94620F019761F3EECFCF93DF93EC01DB
:104860000E94EB23BE01DF91CF910C94620F1F9346
:10487000CF93DF93EB019091E101992331F0CB01CC
:10488000DF91CF911F910C942D24882379F0CB01D7
:104890000E94EB23182F682FCE010E949623BE01A1
:1048A000812FDF91CF911F910C94620FCB010E9459
:1048B000C323182FF4CF682F80910B0190910C0126
:1048C0000C942126682F80910B0190910C010C947F
:1048D000232680910B0190910C010C942526809148
:1048E0002702859585958595089580912702877083
:1048F000089590912702977081E009F480E008956F
:1049000080913302089590913302892B8093330272
:1049100008958095909133029823909333020895DF
:1049200010923302089590913202892B80933202C3
:1049300008958095909132029823909332020895C1
:1049400010923202089590913102892B80933102A6
:1049500008958095909131029823909331020895A3
:1049600010923102089580912802089508950C94C0
:10497000B62490912802981721F0809328020C9475
:10498000B724089580912802882329F010922802E4
:1049900080E00C94B7240895E0910B01F0910C0194
:1049A000809133028083E0910B01F0910C018081B2
:1049B00090913202892B8083E0910B01F0910C01E0
:1049C000808190913102892B8083909128029923D4
:1049D00081F0E0910B01F0910C018081892B8083A3
:1049E00080910B0190910C010E94D92581110E94A8
:1049F000C22480910B0190910C010C94B21A08957D
:104A00000C94FF2498E0899F90011124622B6093FD
:104A100027020E94FA228091270285958595859527
:104A20000C9400251092270280E00C9400259091B0
:104A300027028095892380932702282F277071F4FD
:104A4000282F082E000C330B9217130639F085958A
:104A5000859585950E941B230C94122508956FEF70
:104A60007FEF90E080E00C94882D90E080E00E9441
:104A7000642D21E08C3E9E4F09F020E0822F0895A6
:104A800082E090E00C945C2D83E090E00C945C2D2F
:104A9000CF9384E090E00E945C2DC82F81E290E0EB
:104AA0000E945C2D982F8C2FCF910895CF93C92F02
:104AB000682F84E090E00E946A2D6C2F81E290E0E4
:104AC000CF910C946A2DAB01BC018FE090E00C9467
:104AD0007C2DAB01BC0183E190E00C947C2D60E067
:104AE00070E0CB010C94692560E070E0CB010E947E
:104AF00063250C946F256CEE7EEF90E080E00E94C1
:104B0000882D60E082E090E00E946A2D60E083E002
:104B100090E00E946A2D10922302109224021092BB
:104B200025021092260260E084E090E00E946A2D47
:104B300060E081E290E00E946A2D60E085E090E014
:104B40000E946A2D60E086E090E00E946A2D6FEF7F
:104B500087E090E00E946A2D40E050E0BA0188E0D2
:104B600090E00E947C2D60E08DE090E00E946A2D34
:104B700040E050E0BA0188E190E00E947C2D60E0C6
:104B800087E190E00E946A2D40E050E0BA018CE19C
:104B900090E00E947C2D60E080E290E00E946A2D0F
:104BA0000C9474250C947B25682F8EE090E00C9477
:104BB0006A2D9C012E5F3F4FAC01485F5F4F80E044
:104BC0002417350709F40895F90191919F0199235C
:104BD000B9F38F5FF5CF662349F0FC013296089652
:104BE0002191261729F0E817F907D1F780E00895F9
:104BF00081E008959C01FC0132969FEF80E0419195
:104C0000461751F09F3F19F4411101C0982F8F5F53
:104C10008630A9F79F3F09F40895290F311D97FDAC
:104C20003A95F90162830895FC0132960896219124
:104C3000261303C0DF0111971C92E817F907B9F793
:104C400008950C94FA250C941426029626E0FC0193
:104C500011922A95E9F70895089508950E942C2647
:104C60000E9497110E942D2680E00E94561191E02B
:104C7000811107C081E00E94561191E0811101C0AD
:104C800090E0892F089582E084BD93E095BD9AEF6E
:104C900097BD80936E0008952FB7F8948091FE041D
:104CA0009091FF04A0910005B09101052FBF0895D8
:104CB0002FB7F8946091FE047091FF048091000575
:104CC000909101052FBF08959C014FB7F8948091F2
:104CD000FE049091FF04A0910005B09101054FBF23
:104CE000821B930B0895CF92DF92EF92FF922FB722
:104CF000F894C090FE04D090FF04E0900005F0907E
:104D000001052FBFA7019601261B370B480B590B36
:104D1000CA01B901FF90EF90DF90CF900895789489
:104D20001F921FB61F9211248F939F93AF93BF932F
:104D30008091FE049091FF04A0910005B0910105BF
:104D40000196A11DB11D8093FE049093FF04A093D2
:104D50000005B0930105BF91AF919F918F911F9076
:104D60001FBE1F90189588E198E00FB6F894A8959B
:104D7000809360000FBE90936000A895F894D8E0EF
:104D8000CEEF28E3299320E0299314BEFFCF0895A6
:104D90000C94B1120E9497112FEF89EF90E02150EF
:104DA00080409040E1F700C000000E94971181E030
:104DB0000E94561182FF04C00E94C8260C94B3269C
:104DC00008950E943525811102C00E94D2250E94BB
:104DD0004025809334020E944825909303058093D8
:104DE00002050E944425682F70E090E080E00E9458
:104DF000982260911F02709120028091210290916F
:104E000022020C94D22280913B0280FF12C060915A
:104E1000120185E0689FB00111247595679575951D
:104E2000679560387105A8F561157105A1F1862FA8
:104E3000089581FF09C06091120185E0689FB0016B
:104E4000112475956795EDCF6091120182FD0AC01E
:104E500080913A028823D1F0909111016091120162
:104E6000891728F085E0689FB0011124DACF869F6A
:104E7000B001112485E0869F9001879F300D112499
:104E8000692F70E0C9010E943B2DCBCF65E070E037
:104E9000CECF8FE7089581E0089580913B0280FF97
:104EA0000CC060910E0170E07595679575956795DA
:104EB0006115710549F1862F089581FF06C0609143
:104EC0000E0170E075956795F3CF60910E0182FD3C
:104ED0000BC0909139029923A1F060910D0180914E
:104EE0000E01961738F0682F70E06038710500F3F6
:104EF0008FE70895899FC001112470E00E943B2D27
:104F0000F4CF61E070E0D7CF81E00895803F31F4C5
:104F10000E940327819580933E020895813F19F4F2
:104F20000E940327F8CF823F31F40E940327819526
:104F300080933D020895833F19F40E940327F8CF20
:104F4000893F29F40E944D2780933F0208958A3FAC
:104F500021F40E944D278195F7CF8B3F31F40E94B9
:104F60004D2781958093400208958C3F19F40E944B
:104F70004D27F8CF843F31F480913C0281608093CB
:104F80003C020895853F21F480913C028260F7CF76
:104F9000863F21F480913C028460F1CF873F21F469
:104FA00080913C028860EBCF883F21F480913C02E5
:104FB0008061E5CF8D3F31F480913B028160809329
:104FC0003B0208958E3F21F480913B028260F7CF2F
:104FD0008F3FB9F780913B028460F1CF90913D0201
:104FE000803F59F480913E0287FF0DC010923E022F
:104FF00091110BC010923A0208C0813F81F4809158
:105000003E0218169CF3992381F080913F02909103
:105010004002892B09F064C0109239020895823F42
:1050200049F497FFF0CF10923D0280913E0281112A
:10503000ECCFE0CF833F19F41916ACF3E4CF209105
:105040003F02893F29F41216F4F610923F02DBCF9B
:105050008A3F19F427FFD7CFF8CF209140028B3F2A
:1050600029F427FFD0CF10924002CDCF8C3F19F406
:105070001216CCF3C8CF843F31F480913C028E7F6E
:1050800080933C02C0CF853F21F480913C028D7F0C
:10509000F7CF863F21F480913C028B7FF1CF873F91
:1050A00021F480913C02877FEBCF883F21F48091EF
:1050B0003C028F7EE5CF8D3F31F480913B028E7FA5
:1050C00080933B02A0CF8E3F21F480913B028D7FE5
:1050D000F7CF8F3F09F097CF80913B028B7FF0CFC6
:1050E00008950E944C269C0190913D0280913E02C1
:1050F000982B21F0309338022093370290913F0291
:1051000080914002982B21F0309336022093350293
:105110008CE392E00C94BD1AEF92FF920F931F93D1
:10512000CF93DF9300D000D00F92CDB7DEB785E0EC
:10513000ECE3F2E0DE01119601900D928A95E1F721
:10514000E0903D02F0903E0200913F02109140023B
:1051500010923D0210923E0210923F0210924002C5
:105160008E2D8F2991F080913702909138020E9404
:105170006426AC0190913A02992309F43EC08091D3
:1051800013018417150608F446C0802F812B91F077
:1051900080913502909136020E946426AC01909174
:1051A0003902992309F476C080910F0184171506FE
:1051B00008F47EC080913D0290913E02892B90912F
:1051C0003F02892B90914002892B11F00E94712897
:1051D00085E0FE013196ACE3B2E001900D928A9534
:1051E000E1F70F900F900F900F900F90DF91CF91FC
:1051F0001F910F91FF90EF900895209114018AE084
:10520000289F900111242417350708F0BECF9F5F17
:1052100090933A0202C09F3FD1F7EE2059F00E94CE
:1052200003279FEF1E140CF491E0899F802D112419
:1052300080933D02FF2059F00E9403279FEF1F1427
:105240000CF491E0899F802D112480933E023091CF
:105250003D02332309F499CF20913E02222309F421
:1052600094CF45EB3403C0011124992359F0909356
:105270003D0245EB240390011124332339F0309390
:105280003E0283CF81E080933D02F3CF81E08093A3
:105290003E027BCF209110018AE0289F90011124CB
:1052A0002417350708F086CF9F5F9093390202C01C
:1052B0009F3FD1F7002359F00E944D279FEF101612
:1052C0000CF491E0899F802D112480933F021123DB
:1052D00059F00E944D279FEF11160CF491E0899F21
:1052E000802D11248093400230913F02332309F432
:1052F00061CF20914002222309F45CCF45EB3403B7
:10530000C0011124992359F090933F0245EB2403E7
:1053100090011124332339F0309340024BCF81E0C8
:1053200080933F02F3CF81E08093400243CF85E03A
:10533000ECE3F2E0DF011D928A95E9F710923A0260
:105340001092390210923B0208950E944C268C0163
:1053500080E890E00FB6F89480936100909361002C
:105360000FBE0E94FB1A0E94082B0E94A11A0E94E5
:105370000C2D539A80E0815091F553987894FFEF6B
:1053800020E732E0F15020403040E1F700C000005B
:105390000E94031BC0E0DCE080912B05882349F1CB
:1053A00010922B050E944C268C010E941C2C80918F
:1053B0003105882329F080910F0584FD0E94121B7E
:1053C0000E94752A0E941C2C80913105882329F0A7
:1053D0008091480584FD0E94FC2AC0E0DDCFA8959D
:1053E000EFE9FFE03197F1F700C00000C4CFC1E062
:1053F000D3CFC8010E946426069710F4CC23A9F2EB
:105400000E942E26C82F882391F3F8949AB15B9AB4
:10541000892F8C608AB98BB18D278BB98FE7E8E330
:10542000F1E08150E040F040E1F700C000008BB1B6
:105430008D278BB99AB95B987894AECF8091F3029F
:105440000895CF93DF9300D00F92CDB7DEB7909140
:105450004302981307C0209141023091420226175F
:10546000370791F0809343027093420260934102A8
:1054700089837B836A838091480584FF05C063E04C
:10548000CE0101960E94142C0F900F900F90DF9187
:10549000CF910895BC0184E00C94212ABC0183E0E3
:1054A0000C94212ACF93DF9300D000D000D0CDB749
:1054B000DEB7FC0182E0898395E0DE01129601905F
:1054C0000D929A95E1F78091480584FF05C066E04A
:1054D000CE0101960E94142C26960FB6F894DEBFDA
:1054E0000FBECDBFDF91CF910895CF93DF93CAE078
:1054F000D0E080910F0584FF1AC0809170029091D6
:105500007102981789F028E0829FC001112468E099
:105510008E589D4F0E94102C8091700290E0019651
:105520008F70992780937002DF91CF9108950E9428
:105530001C2C8FE99FE00197F1F700C00000219734
:10554000C1F6F2CFCF93DF93EC01A0917102B0E0EE
:10555000CD0101968F70992720917002281779F05C
:1055600093E0AA0FBB1F9A95E1F7AE58BD4F98E0A4
:10557000FE0101900D929A95E1F7809371020E94CD
:105580001C2C0E94752A88E0FE01A8E6B2E001907A
:105590000D928A95E1F7DF91CF9108950F931F93B4
:1055A000CF93DF93EC01603211F58C01005E1F4F49
:1055B00002C00E941C2C80911B0584FFFACF68E07A
:1055C000CE010E94182C2896C017D107A1F7809110
:1055D0001B0584FF09C060E090E080E0DF91CF917F
:1055E0001F910F910C94182C0E941C2CF0CFDF916E
:1055F000CF911F910F91089580914702803239F425
:1056000060E288E492E00E9413131092470208952A
:1056100085E191E00895FC01808180768032F1F48B
:105620008181813061F484819581892BB9F488E688
:1056300092E090932D0580932C0588E008958230A8
:1056400041F482EF92E090932D0580932C0581E048
:1056500008958A3029F483818093F20280E00895CE
:105660008930E1F7828193818115924069F48481C8
:105670009581892B49F481E0809346028681978148
:1056800090934502809344028FEF0895FC0180912E
:10569000440290914502892B61F08091460281304D
:1056A00041F490819093F3021092450210924402CB
:1056B00008958FEF0895683019F010924702089509
:1056C000209147022931C8F7FC01A22FB0E0A85B66
:1056D000BD4F089631913D93E817F907D9F7285F38
:1056E000209347020895FC018381833089F130F4CF
:1056F0008130F1F0823021F180E00895813209F4A7
:1057000041C08232C9F7248135812130310509F445
:1057100057C02115310509F44BC02230310561F71E
:105720008DE196E190932D0580932C0581E80895F5
:1057300087EB95E190932D0580932C0582E10895E8
:105740008CE595E190932D0580932C058BE50895CC
:105750008281813089F0882339F0823081F0833072
:1057600059F689EC95E102C087EF95E190932D05FC
:1057700080932C0584E0089583EE95E1DBCF8FECD8
:1057800095E1D8CF8281813081F0882331F0823059
:1057900009F0B2CF87EA95E102C08EE695E19093D9
:1057A0002D0580932C0589E0089587E895E1F7CFD2
:1057B0008EE996E190932D0580932C0580E4089561
:1057C0002BEF35E130932D0520932C0508951F9381
:1057D000CF93DF93E82F792F162FEA01888184FF7A
:1057E0001CC0298188E828272983CE010296DC0184
:1057F0002E2F372F512F5E0FF90121912D939F01ED
:10580000452F4E1B1416C4F3612F0E94CD0B1C5F55
:105810001883DF91CF911F9108958AE58883E5CFA2
:105820004FE055E00C94E72B48E455E00C94E72B4F
:105830004BE155E00C94E72BCF93DF9360912E055D
:10584000635067FD12C080912A05CCE0D0E0C81BF0
:10585000D109CE5CDA4F80912905803108F054C01F
:10586000CE010E945B2B10922E058091200184FFB7
:105870003EC080911F018F3FD1F1C82F893008F0C1
:10588000C8E0982F9C1B90931F019091040528E875
:105890009227909304058823E9F080912C0590913C
:1058A0002D052091280526FFAEC0FC012C2FA5E078
:1058B000B5E034913D9331962150D9F79C012F5F8B
:1058C0003F4F8FEF8C0F820F932F911D90932D05DB
:1058D00080932C056C2F85E095E00E94CD0BCC5F6A
:1058E000CC3019F08FEF80931F01C093200184E129
:1058F00099B19C7031F48150D9F710922F05109214
:105900002705DF91CF9108958D3209F069C0683085
:1059100009F0A9CF83EC809304058AE580932001E8
:10592000109228058881807671F0CE010E940B2BA1
:105930008F3FC1F4988197FD8E8190E89093280560
:1059400080931F0190CF2A8110920D0599819111AA
:1059500011C010920E052DE035E082E030932D0548
:1059600020932C059F819111EBCF9E81981740F7D2
:10597000892FE6CF953029F420932F052DE035E0CF
:10598000EDCF963099F49B81913021F4CE010E94A5
:10599000732B08C09230D1F39330C1F39132B1F33D
:1059A0009232A1F390E490932805C2CF983089F009
:1059B000993019F420933105E1CF9A3071F09B3082
:1059C000E9F69BE4909310059093490590931C058C
:1059D000D5CF21E335E081E0C1CF2DE035E0FBCF2D
:1059E0008091280587FF3FCFCE010E94462B8F3F35
:1059F00021F48EE18093200136CF882309F433CF40
:105A000010921F0130CFDC012C2FE5E0F5E03D9135
:105A100031932150E1F752CFCF93DF93E9E6F0E0E5
:105A2000808188608083E99ACFE0D5E08BE4898328
:105A3000A8E4B5E011968C931197EBE1F5E0818332
:105A40008AE588838C938083DF91CF910895AA1B88
:105A5000BB1B51E107C0AA1FBB1FA617B70710F059
:105A6000A61BB70B881F991F5A95A9F7809590958B
:105A7000BC01CD01089597FB072E16F4009407D0C2
:105A800077FD09D00E94272D07FC05D03EF49095A4
:105A900081959F4F0895709561957F4F0895EE0F02
:105AA000FF1F0590F491E02D099469279627692737
:105AB0007827872778270895F999FECF92BD81BD71
:105AC000F89A992780B50895A8E1B0E042E050E047
:105AD0000C94902D262FF999FECF92BD81BDF89A96
:105AE000019700B4021639F01FBA20BD0FB6F89422
:105AF000FA9AF99A0FBE08950396272F0E946B2DEC
:105B00000E946A2D252F0E946B2D242F0C946B2D43
:105B10000196272F0E946B2D0C946A2DDC01CB017E
:105B2000FC01F999FECF06C0F2BDE1BDF89A3196AD
:105B300000B40D9241505040B8F70895F894FFCF4B
:105B400022132C134D13591364136F137213721312
:105B50007213BB13BE137513791381138E139B132A
:105B60009E13A113AE13C21CC21C191D191D6C1D5E
:105B7000881DEF1CEF1C931D1F1E2E1E2E1E8E1E39
:105B8000EF1CEF1C971E0C1F0C1F151F151F171F56
:105B9000151F151F151F0C1F0C1F1C1F151F151F70
:025BA0001C1FC8
:105BA200580200000021007F220003290228086415
:105BB2001E140A321E1E2AA22A522A4E2A4A2AFFDC
:105BC2005AE200E900EA00B500B600B700CD008352
:105BD20001CC008A019201940121022302240225B0
:105BE20002260227022A02B300B4006F007000816D
:105BF200828394953163626100FF0100010000FF1E
:105C0200FF0000010001FF00000810181810080032
:105C1200E200E900EA00B500B600B700CD0083015A
:105C2200CC008A019201940121022302240225025E
:105C3200260227022A02B300B4006F00700081829C
:025C42008300DD
:00000001FF
